:020000040800F2
:10000000306E00205D0300086F03000871030008D4
:100010007303000875030008770300080000000060
:10002000000000000000000000000000A502000821
:100030007B03000800000000F9020008A529000861
:100040008103000881030008810300088103000880
:100050008103000881030008810300088103000870
:100060008103000881030008810300088103000860
:100070008103000881030008810300088103000850
:100080008103000881030008810300082111000892
:10009000E5100008810300088103000881030008BF
:1000A0008103000881030008810300088103000820
:1000B0008103000881030008810300088103000810
:1000C0008103000881030008810300088103000800
:1000D00081030008D1330008810300088103000870
:1000E00081030008810300088103000881030008E0
:1000F00081030008810300088103000881030008D0
:1001000081030008810300088103000881030008BF
:1001100081030008810300088103000881030008AF
:10012000810300088103000881030008810300089F
:100130008103000881030008810300087911000889
:100140003D110008810300088103000881030008B5
:10015000810300088103000881030008913400082E
:10016000810300088103000881030008810300085F
:1001700081030008810300088103000800000000DB
:10018000810300088103000881030008413300084F
:10019000810300088103000881030008810300082F
:1001A00000000000000000008103000800F002F8D9
:1001B00000F068F80AA090E8000C82448344AAF199
:1001C0000107DA4501D100F05DF8AFF2090EBAE897
:1001D0000F0013F0010F18BFFB1A43F0010318477B
:1001E000247F0000447F000010F8013B0A4413F014
:1001F000030408BF10F8014B1D1108BF10F8015B84
:10020000641E05D010F8016B641E01F8016BF9D172
:10021000002D15D010F8014B03F00C030C2BA1EBB3
:1002200004040ABF10F8013BA4EB8314A4EB0324DD
:1002300005F1010314F8016B5B1E01F8016BF9D5A0
:10024000914238BF10F8013BD1D3704700230024FE
:1002500000250026103A28BF78C1FBD8520728BFD6
:1002600030C148BF0B607047642900F009817329D1
:1002700000F03E82002070471FB507F039FF1FBD18
:1002800010B510BD00F0A2FA1146FFF7F5FF05F01A
:1002900051F800F0C0FA03B4FFF7F2FF03BC03F01B
:1002A000C5FB00002A4B19680868B0E8F04F80F3DE
:1002B0000988BFF36F8F4FF0000080F311887047FB
:1002C0000000000006480068006880F3088862B6F5
:1002D00061B6BFF34F8FBFF36F8F00DF00BF00BF6A
:1002E00008ED00E0DFF80C00016841F470010160E6
:1002F000704700BF88ED00E0EFF30980BFF36F8F18
:10030000134B1A681EF0100F08BF20ED108A20E969
:10031000F04F106008B44FF0100080F31188BFF365
:100320004F8FBFF36F8F06F011FD4FF0000080F389
:10033000118808BC19680868B0E8F04F1EF0100F6B
:1003400008BFB0EC108A80F30988BFF36F8F704745
:1003500094120020EFF30580704700000C480168FC
:1003600041F4700101600B4880470B480047FEE7ED
:10037000FEE7FEE7FEE7FEE7FEE7FEE7FEE7FEE755
:10038000FEE7000005480649044A064B7047000096
:1003900088ED00E0B5290008AD010008306A0020B2
:1003A000306E0020306A0020704700000FB404490E
:1003B00010B503AA029800F09FF910BC5DF814FB79
:1003C000140000202DE9F0410E4604460020206272
:1003D0002046E168884730B3252805D0D4E90121BB
:1003E0009047206A401CF2E7E168204600278847D2
:1003F000050018D0A5F14100192802D820354FF486
:1004000000673246294620462760FFF72DFF40B19E
:10041000012804D0F61D26F007060836D8E7361D59
:10042000D6E72846DAE7206ABDE8F08170B50C46C9
:100430000546012A05D02878800600D5EA69002300
:1004400002E0012305E05B1C934202D2E05C00283D
:10045000F9D1A869E618C01AA861286A1844286268
:100460002846AFF3008004E0D5E9012114F8010B20
:100470009047B442F8D32846AFF3008070BD000027
:100480002DE9F0410646002410687529314616A56D
:1004900010D0AFF30080002802DA404213A507E035
:1004A00031688A0701D512A502E0490704D511A5D4
:1004B000012401E0AFF3008000210A2206F12407A5
:1004C00009E0B0FBF2FCB0FBF2F302FB1C003030A1
:1004D00078541846491C0028F3D123462A46304652
:1004E000BDE8F04100F080B8000000002D000000E1
:1004F0002B00000020000000032A40F2308010F0A2
:10050000030C00F0158011F8013BBCF1020F6244AE
:1005100098BF11F801CB00F8013B38BF11F8013B3F
:10052000A2F1040298BF00F801CB38BF00F8013BEC
:1005300011F0030300F0F280083AC0F0088051F88F
:10054000043B083A51F804CBA0E80810F5E7121D67
:100550005CBF51F8043B40F8043BAFF30080D20786
:1005600024BF11F8013B11F801CB48BF11F8012B52
:1005700024BF00F8013B00F801CB48BF00F8012B75
:10058000704702F0FF0343EA032242EA024200F00E
:10059000F9B84FF0000200B513469446964620394C
:1005A00022BFA0E80C50A0E80C50B1F12001BFF42C
:1005B000F7AF090728BFA0E80C5048BF0CC05DF892
:1005C00004EB890028BF40F8042B08BF704748BFE0
:1005D00020F8022B11F0804F18BF00F8012B704754
:1005E00070477047704770472DE9F0470D469946B0
:1005F0009246044600F124080168880604D5E069A3
:1006000021F01001216000E00120A84201DD471B1C
:1006100000E00027A1697A1902EB0900081AA0611D
:100620002078C00602D42046AFF30080002608E000
:10063000D4E901211AF806009047206A401C761C74
:1006400020624E45F4DB2078C0060AD52046AFF381
:10065000008006E0D4E9012130209047206A401C48
:100660002062381EA7F10107F4DC07E0D4E901217C
:1006700018F805009047206A401C2062281EA5F14A
:100680000105F3DC2046AFF300802078000602D598
:100690000220BDE8F0870120FBE7000001694A1C49
:1006A00002610878704700B58FB0CDE901310021B3
:1006B000059105497944CDE9031011466846FFF7D5
:1006C00081FE0FB000BD0000E5FFFFFF10B54369DC
:1006D00013B1AFF3008001E0FFF7A8FE012010BDC9
:1006E000127800F124010A7000224A700122EDE71D
:1006F00011684FF0FF32E9E7074B70B50D467B44B8
:10070000FFF7D1FF0446284600F05CF810B14FF027
:10071000FF3070BD204670BDE348000010B5203AA0
:10072000C0F00B80B1E81850203AA0E81850B1E8AA
:100730001850A0E81850BFF4F5AF5FEA027C24BF60
:10074000B1E81850A0E8185044BF18C918C0BDE857
:1007500010405FEA827C24BF51F8043B40F8043B20
:1007600008BF7047D20728BF31F8023B48BF11F8D5
:10077000012B28BF20F8023B48BF00F8012B70472F
:100780004FF000020429C0F0128010F0030C3FF477
:1007900002AFCCF1040CBCF1020F18BF00F8012B22
:1007A000A8BF20F8022BA1EB0C01FFF7F4BE5FEA13
:1007B000C17C24BF00F8012B00F8012B48BF00F8D2
:1007C000012B7047007B00F080007047754600F0F9
:1007D0002BF8AE4605006946534620F007008546D3
:1007E00018B020B5FFF7CEFDBDE820404FF0000661
:1007F0004FF000074FF000084FF0000B21F0070109
:10080000AC46ACE8C009ACE8C009ACE8C009ACE84B
:10081000C0098D46704710B50446AFF300802046EE
:10082000BDE81040FFF737BD00487047CC69002095
:1008300000B587B00121480601F070FF012188064C
:1008400001F06CFF484800F015FD04A800F04DFFD2
:1008500000208DF816008DF817008DF818008DF81F
:1008600019008DF81A0001208DF81B0000208DF86A
:1008700012008DF8130009208DF8140003208DF864
:100880001500ADF8100004A9374800F02CFE002038
:100890008DF80A008DF80B0001208DF80C00002067
:1008A000ADF80000ADF80200ADF80400ADF80600A8
:1008B000ADF8080001208DF80D00684600F0F6FC48
:1008C00001220221284800F005FE01221146264897
:1008D00000F000FE254800F0CDFC04A800F005FF64
:1008E00000208DF816008DF817008DF818008DF88F
:1008F00019008DF81A008DF81B008DF812008DF884
:10090000130009208DF8140003208DF81500ADF8B0
:10091000100004A9154800F0E6FD0E208DF80A002D
:1009200000208DF80B0001208DF80C000020ADF8A0
:100930000000ADF80200ADF80400ADF80600ADF817
:10094000080001208DF80D00684600F0AFFC012280
:100950000221064800F0BEFD01221146034800F0C6
:10096000B9FD07B000BD0000006400400068004011
:1009700000B58FB001214FF4C00001F0BFFE2E483A
:1009800001F092F8684601F099F94FF0006000908C
:100990002A4801902A480290002003901E200490CB
:1009A000002005904FF4806006900020079008908A
:1009B0004FF48070099000020A9000200B900C9078
:1009C0000D900E9069461C4801F04AF900221C491E
:1009D0001E31194801F01FF90121174801F010F9E3
:1009E0000121154801F054F84FF02060009015489F
:1009F0000190154802900020039080200490002070
:100A000005904FF4806006900020089007900990B0
:100A10004FF480300A9000200B9003200C900020AF
:100A20000D900E906946094801F01AF90121074816
:100A300001F02EF80FB000BD4064024004100140E8
:100A400054130020047C004030140020A0600240B9
:100A50001CB50121084601F051FE0121022001F0E0
:100A60004DFE0121082001F049FE0121102001F076
:100A700045FE0121402001F041FE012200217F4876
:100A800001F0A4F90120009002208DF804008DF8F7
:100A9000050000208DF8060001208DF8070069464A
:100AA000764801F04BF901220021754801F08EF9DA
:100AB00001221146724801F089F901220221704891
:100AC00001F084F9012203216D4801F07FF90F2024
:100AD000009002208DF804008DF8050000208DF8AC
:100AE000060001208DF807006946644801F026F9E8
:100AF00002220C21624801F069F902220D216048AE
:100B000001F064F902220E215D4801F05FF9022232
:100B10000F215B4801F05AF94FF470400090022019
:100B20008DF8040003208DF8050000208DF80600E4
:100B30008DF807006946524801F000F902220A21A7
:100B4000504801F043F902220B214E4801F03EF9D2
:100B50004FF44060009002208DF804008DF80500ED
:100B600000208DF8060001208DF8070069464548F1
:100B700001F0E4F809220121414801F027F9092296
:100B800000213F4801F022F90320009002208DF857
:100B9000040069463A4801F0D1F809220D213A488B
:100BA00001F014F909220C21374801F00FF94FF434
:100BB0004050009002208DF804006946324801F050
:100BC000BDF807221146304801F000F9802000905E
:100BD00002208DF8040000208DF8050001208DF81A
:100BE00007006946284801F0A9F808220E21274885
:100BF00001F0ECF808220921244801F0E7F84FF44D
:100C00008440009002208DF804008DF8050000203B
:100C10008DF8060001208DF8070069461B4801F099
:100C20008DF8082200211A4801F0D0F8082201218D
:100C3000174801F0CBF80320009002208DF8040043
:100C400000208DF8060003208DF8050000208DF8A7
:100C5000070069460E4801F071F801208DF8040084
:100C60006020009000208DF8060003208DF805001C
:100C70006946074801F062F81CBD00000000024010
:100C8000000C0240001C0240000402400018024018
:100C90000010024010B5FFF7DBFE00F009F8FFF787
:100CA000C7FD00F071F800F097F9FFF761FE10BD85
:100CB00008B54FF4407001F079FB14208DF8000066
:100CC00000208DF801008DF8020001208DF803004E
:100CD000684601F02FFB13208DF8000000208DF8EE
:100CE00001008DF8020001208DF80300684601F034
:100CF00021FB40208DF8000002208DF8010000202B
:100D00008DF8020001208DF80300684601F012FB07
:100D10003F208DF8000002208DF8010000208DF8A2
:100D2000020001208DF80300684601F003FB252036
:100D30008DF8000004208DF8010000208DF80200DD
:100D400001208DF80300684601F0F4FA53208DF875
:100D5000000004208DF8010001208DF802008DF8BC
:100D60000300684601F0E6FA47208DF800000320F2
:100D70008DF8010000208DF8020001208DF803009D
:100D8000684601F0D7FA08BD00B589B001210F20EF
:100D900001F0C4FC0121032001F0E0FC42F20F70DD
:100DA000079040F28F60ADF818000020ADF82000E9
:100DB000ADF81A0006A94FF0804001F0A9FF42F2F9
:100DC0000F70079040F28F60ADF818000020ADF86A
:100DD0002000ADF81A008DF8220006A97B4801F02A
:100DE00097FF42F20F70079040F28F60ADF8180045
:100DF0000020ADF82000ADF81A0006A9744801F0F3
:100E000087FF42F20F70079040F28F60ADF8180034
:100E10000020ADF82000ADF81A0006A96D4801F0D9
:100E200077FF7020ADF804000120ADF80600002027
:100E3000ADF81000039001A94FF0804001F016FEBC
:100E40000821C80601F050FE01A94FF0804001F0D2
:100E500055FE0821C80601F0A3FE01A94FF080400D
:100E600001F0ACFE0821C80601F0F8FE01A94FF020
:100E7000804001F0FDFE0821C80601F035FF012188
:100E8000880701F0CBFD0121880701F0D3FD602028
:100E9000ADF804000120ADF806000020ADF8100008
:100EA000ADF808009620039001A9484801F0DEFD46
:100EB0000821464801F018FE01A9444801F01EFE31
:100EC0000821424801F06CFE01A9404801F076FE7D
:100ED00008213E4801F0C2FE01A93C4801F0C8FECD
:100EE00008213A4801F000FF0121384801F096FD41
:100EF0000121364801F09EFD7020ADF8040001206C
:100F0000ADF806000020ADF81000039001A93048AC
:100F100001F0ACFD08212E4801F0E6FD01A92C48A6
:100F200001F0ECFD08212A4801F03AFE01A9284809
:100F300001F044FE0821264801F090FE01A9244852
:100F400001F096FE0821224801F0CEFE0121204842
:100F500001F064FD01211E4801F06CFD6020ADF838
:100F600004000120ADF806000020ADF81000039049
:100F700001A9184801F07AFD0821164801F0B4FDD6
:100F800001A9144801F0BAFD0821124801F008FE39
:100F900001A9104801F012FE08210E4801F05EFE82
:100FA00001A90C4801F064FE08210A4801F09CFEEA
:100FB0000121084801F032FD0121064801F046FDFB
:100FC0000121044801F036FD09B000BD00080040D1
:100FD000000C0040000401401FB50121C80701F0CA
:100FE0009DFB0121302001F0B9FB3A4802F02EFBB5
:100FF000684602F062FC384800900020ADF804001A
:10100000ADF806004FF48060ADF808000420ADF89C
:101010000A000020ADF80C0069462E4802F0DEFB05
:10102000012240212B4802F007FB012240F224411B
:10103000284802F0ADFB0121264802F0F1FA2748CA
:1010400002F004FB684602F038FC4FF4E1300090F7
:101050000020ADF80400ADF80600ADF808000C2043
:10106000ADF80A000020ADF80C0069461B4802F0FC
:10107000B5FB01224021194802F0DEFA012240F2BC
:101080002441164802F084FB0121144802F0C8FAFA
:101090004FF4E13000900020ADF80400ADF80600F8
:1010A000ADF80800ADF80C000C20ADF80A00694658
:1010B0000B4802F093FB0121094802F0B1FA01222A
:1010C00040F22551064802F063FB4021044802F03B
:1010D0008FFA1FBD00100140A0860100007C004077
:1010E0000014014010B502210A4800F063F980B1F4
:1010F000094A0021074800F080FA0749054803F033
:1011000083FD0421034800F061F80449014800F020
:1011100041F810BD006400400813002008000032B0
:1011200010B50121044800F045F918B10121024829
:1011300000F04CF810BD00000064004010B5022122
:101140000A4800F037F980B1094A0021074800F049
:1011500054FA0749054803F057FD0421034800F0FD
:1011600035F80449014800F015F810BD006800404A
:101170001C1300200800003210B50121044800F0C3
:1011800019F918B10121024800F020F810BD000043
:101190000068004000220C4B994202D10023836179
:1011A00011E0C1F3130201F000730BB1C2600AE059
:1011B00001F080630BB1026105E001F000630BB147
:1011C000826000E0426070477000F030B1F5007F4F
:1011D0003AD00FDC202928D006DC01291CD00429B4
:1011E0001DD0082940D11DE0402921D0B1F5807FD4
:1011F0003AD126E0B1F5004F31D006DCB1F5806F71
:1012000025D0B1F5006F2FD124E0B1F5803F12D089
:10121000B1F5003F28D111E0154A826025E008228F
:10122000C26022E01022C2601FE0082202611CE0BE
:101230001022026119E00822426016E0102242608A
:1012400013E00422426010E0042242600DE0042218
:1012500042600AE0002282610422426005E000222E
:1012600082610422426000E000BF00BF70470000BE
:101270000101010010B504460B48844209D1012147
:10128000480601F05BFA00214FF0007001F056FAB9
:1012900008E00121880601F051FA00214FF080603A
:1012A00001F04CFA10BD00000064004010B50021B0
:1012B000837A012202FA03F13D4A126842F00102E8
:1012C0003B4B1A603A4A1C3212688A43384B1C3333
:1012D0001A60027BCAB9364A0C3212688A43344B10
:1012E0000C331A604288C38842EA0343304A4032D2
:1012F000847A42F834300288838842EA03432C4AD5
:101300004032847A02EBC4025360027B012A19D175
:10131000274A0C3212680A43254B0C331A60428864
:10132000038842EA0343224A4032847A42F8343046
:10133000C288838842EA03431D4A4032847A02EB22
:10134000C4025360C27A3AB9194A121D12688A431C
:10135000174B1B1D1A6006E0154A121D12680A433E
:10136000134B1B1D1A60028932B9114A14321268DC
:101370008A430F4B14331A600289012A06D10C4AA2
:10138000143212680A430A4B14331A60427B012A52
:1013900006D1074A1C3212680A43054B1C331A60F7
:1013A000034A126822F00102014B1A6010BD0000CE
:1013B0000066004070B504460D460026606928406E
:1013C000002871D0B5F5807F5CD010DC082D35D0B9
:1013D00006DC012D20D0022D24D0042D72D127E06F
:1013E000102D31D0202D35D0402D6BD138E0B5F502
:1013F000004F60D009DCB5F5007F49D0B5F5806FAE
:101400004CD0B5F5006F5DD14FE0B5F5803F2DD0E4
:10141000B5F5003F56D12FE0A0682D4900F058FAED
:10142000064651E0E068032100F052FA06464BE020
:10143000E068082100F04CFA064645E0E06810211B
:1014400000F046FA06463FE02069032100F040FA2A
:10145000064639E02069082100F03AFA064633E0F2
:101460002069102100F034FA06462DE0606808215A
:1014700000F02EFA064627E06068102100F028FAF6
:10148000064621E0A069012100F022FA06461BE091
:10149000A069022100F01CFA064615E0A0690421AB
:1014A00000F016FA06460FE00FE0A069702100F088
:1014B0000FFA064608E06068042100F009FA0646C3
:1014C00002E0FFE7002600BF00E00026304670BDC6
:1014D000010101001AB143690B43436102E0436912
:1014E0008B434361704730B50246002000231468E7
:1014F00024F002041460146844F00104146000E055
:101500005B1C546804F001041CB94FF6FF74A3423D
:10151000F6D1546804F001040CB900206CE08C7919
:10152000012C04D1146844F08004146003E01468B2
:1015300024F080041460CC79012C04D1146844F0A8
:101540004004146003E0146824F0400414600C7A32
:10155000012C04D1146844F02004146003E01468E2
:1015600024F0200414604C7A012C04D1146844F057
:101570001004146003E0146824F0100414608C7AE2
:10158000012C04D1146844F00804146003E01468CA
:1015900024F008041460CC7A012C04D1146844F0BF
:1015A0000404146003E0146824F0040414608C78CC
:1015B000A407CD7844EA05640D7944EA05444D79E1
:1015C00044EA05540D886D1E2C43D461146824F040
:1015D00001041460002300E05B1C546804F0010463
:1015E0001CB14FF6FF74A342F6D1546804F0010415
:1015F0000CB1002000E0012030BD10B500F5D8731B
:1016000003EB01131B6803F004031372137A53B93D
:1016100000F5D87303EB01131B6840F2FF7404EA72
:101620005353136009E000F5D87303EB01131B68F3
:101630006FF0604404EAD303536000F5D87303EB02
:1016400001131B6803F00203537200F5D87303EB18
:1016500001135B6803F00F03937200F5D87303EB7B
:1016600001135B681B0AD37400F5D87303EB0113F5
:101670009B68D37200F5D87303EB01139B681C0AB7
:10168000147300F5D87303EB01139B681C0C54739F
:1016900000F5D87303EB01139B681B0E937300F5E1
:1016A000D87303EB0113DB68D37300F5D87303EB36
:1016B0000113DB681C0A147400F5D87303EB0113E3
:1016C000DB681C0C547400F5D87303EB0113DB6862
:1016D0001B0E937421B9C36843F02003C36003E079
:1016E000036943F02003036110BD00218171C171C2
:1016F000017241728172C1728170C17003210171E6
:101700000221417101210180704710B5024600207D
:10171000936803F08063B3F1806F00D110E09368A9
:1017200003F00063B3F1006F01D1012008E093687A
:1017300003F08053B3F1805F01D1022000E0042068
:10174000042874D002F5C07303EB00131B6803F088
:10175000010402F5C07303EB00131C600B7A7BB924
:101760004B7A0C8843EA445302F5C07404EB00142E
:101770002468234302F5C07404EB0014236010E0D6
:101780000B7A4C6843EAC4034C7A234302F5C074D5
:1017900004EB00142468234302F5C07404EB001426
:1017A00023608B7A03F00F038B7202F5C07303EB97
:1017B00000135B6823F00F0402F5C07303EB001302
:1017C0005C6002F5C07303EB00135B688C7A234303
:1017D00002F5C07404EB001463608B7B1C064B7B2A
:1017E00044EA03440B7B44EA0323CC7A234302F507
:1017F000C07404EB0014A3608B7C1C064B7C44EA91
:1018000003440B7C44EA0323CC7B234302F5C074DE
:1018100004EB0014E36002F5C07303EB00131B68D4
:1018200043F0010402F5C07303EB00131C6010BD0C
:1018300010B50246002321B1012907D002290FD19A
:1018400009E090681D4C00EA04030BE090681C4C12
:1018500000EA040306E090681A4C00EA040301E081
:10186000002300BF00BF184C181BA34216D007DC92
:1018700083B16FF08060184470B1022818D111E074
:10188000B0F5007F10D0114C204448B1B0F5003FB6
:101890000ED10BE002230DE000230BE0002309E052
:1018A000002307E0012305E0012303E0012301E019
:1018B000002300BF00BFD8B210BD00000300000429
:1018C0000003000800000310000100080001FFF7FA
:1018D0000246002002EA01030BB1012000E00020D3
:1018E0007047000070B506460D46144656488642BD
:1018F00054D1012055490870554908704002534998
:10190000486008215148817300210173417340F2FE
:10191000FF104F49486008214D4881730021017331
:101920004173092D2ED2DFE805F02D050A0F141999
:101930001E232800210A4548C173047422E0210AAD
:101940004248417484741DE0210A4048C174047502
:1019500018E0210A3D484175847513E0210A3C488E
:10196000C17304740EE0210A39484174847409E09B
:10197000210A3748C174047504E0210A34484175CE
:10198000847500BF00BF3149091D304604F0E4FBF7
:101990002F49091D304604F0DFFB53E002202D499A
:1019A00008702D49087000022A494860082129481A
:1019B000817300210173417340F2FF102649486092
:1019C000082125488173002101734173092D2ED20E
:1019D000DFE805F02D050A0F14191E232800210A3F
:1019E0001C48C173047422E0210A1A4841748474AB
:1019F0001DE0210A1748C174047518E0210A154832
:101A00004175847513E0210A1348C17304740EE014
:101A1000210A11484174847409E0210A0E48C174F6
:101A2000047504E0210A0C484175847500BF00BFAD
:101A30000849091D304604F08FFB0749091D30464F
:101A400004F08AFB70BD000000640040A015002077
:101A5000B8150020D0150020E81500200246094BDB
:101A60009A4201D2084801E00648103801F00053BC
:101A70001BB1064B0B40C36002E0044B0B4083607C
:101A80007047000010640240006002407D0F7D0F2F
:101A900021B1026842F00102026003E0026822F014
:101AA0000102026070470000016821F0010101603D
:101AB0000021016041608160C160016121214161BB
:101AC0004A49884204D13D21484A103A91608CE04D
:101AD00046491831884205D14FF47461434A103A9F
:101AE000916082E041493031884205D14FF4741150
:101AF0003E4A103A916078E03C494831884205D12D
:101B00004FF07461394A103A91606EE037496031A4
:101B1000884204D13649354A103AD16065E03349EC
:101B20007831884204D13349304A103AD1605CE0C0
:101B30002E499031884204D12F492C4A103AD16065
:101B400053E02A49A831884205D14FF03D51274A38
:101B5000103AD16049E02949884204D13D21274A01
:101B6000083A116041E025491831884205D14FF407
:101B70007461224A083A116037E0204930318842C6
:101B800005D14FF474111D4A083A11602DE01B492C
:101B90004831884205D14FF07461184A083A116003
:101BA00023E016496031884204D11149134A121FBB
:101BB00011601AE011497831884204D10D490F4A69
:101BC000121F116011E00D499031884204D10A4979
:101BD0000A4A121F116008E00849A831884204D15E
:101BE0004FF03D51054A121F1160704710600240CE
:101BF0003D000020400F002000003D201064024006
:101C000021B1026842F48022026003E0026822F4FB
:101C100080220260704722B1036843F4002303600E
:101C200003E0036823F40023036001617047014669
:101C300000200A6802F001020AB1012000E0002041
:101C400070470146486880B27047014600200A6824
:101C500002F400220AB1012000E0002070470000D9
:101C600010B500220268134B1A40CC680B6823435E
:101C70004C6923438C692343CC6923430C6A234377
:101C80004C6A23438C6A23434C6B23438C6B234362
:101C90001A430260426922F00702D1E90B34234360
:101CA0001A4342610B6943604B6883608B68C36071
:101CB00010BD00003F801CF04160704700210160B2
:101CC00041608160C160016141618161C161016206
:101CD00041628162C16201634163816370470000B8
:101CE00010B5002202211348FFF7FCFD002201215C
:101CF0001048FFF7F7FD002203210E48FFF7F2FD21
:101D0000002204210B48FFF7EDFD002202210A48C2
:101D1000FFF7E8FD002201210748FFF7E3FD00225D
:101D200003210548FFF7DEFD002204210248FFF7EA
:101D3000D9FD10BD0064004000680040F0B50A46BF
:101D400000210023002400BF3DE0012505FA01F336
:101D5000156805EA03049C4234D105684F00032648
:101D6000BE40B543056015794E00B5400668354361
:101D700005601579012D02D01579022D16D18568DF
:101D80004F000326BE40B543856055794E00B540EF
:101D9000866835438560456801268E40B5434560B9
:101DA000456896798E40B6B235434560C5684F00A8
:101DB0000326BE40B543C560D5794E00B540C66820
:101DC0003543C560491C1029BFD3F0BDF0B50023D1
:101DD00000244D07ED0E02FA05F3CE1000F12005A8
:101DE00055F826504E07F70E0F26BE40B543CF10CC
:101DF00000F1200646F82750CE1000F1200555F8D6
:101E0000265045EA0304CE1000F1200545F826408F
:101E1000F0BD0246002013690B400BB1012000E029
:101E20000020704710B500F001F810BD10B503F0A8
:101E3000FBF810BD70B585B004460D46164694F803
:101E400022008DF800002320005D8DF80100242081
:101E5000005D8DF802002520005D8DF8030027202D
:101E6000005D8DF804002620005D8DF80500282017
:101E7000005D8DF806002920005D8DF807002A20FE
:101E8000005D8DF808002B20005D8DF809002C20E6
:101E9000005D8DF80A002D20005D8DF80B002E20CE
:101EA000005D8DF80C002F20005D8DF80D003020B6
:101EB000005D8DF80E003120005D8DF80F0032209E
:101EC000005D8DF810003320005D8DF81100112D9C
:101ED00000DD112504F134002844154908600DEB9C
:101EE00005001449086046B90A4612681178124A7A
:101EF000501903F00DFA05B070BD0E4A1268117842
:101F00000D4A501903F004FA094909680978084490
:101F1000074909680870064800680078B04203DD88
:101F20000020034909680870014800680078E2E76A
:101F3000480000204C0000201C14002070B504460E
:101F40000D4694ED011AF0EE410A94ED001AB0EE40
:101F5000410AF04802F038FFD4ED020AF8EEE00A38
:101F6000B0EE600AEB4802F028FFD4ED030AF8EE69
:101F7000E00AB0EE600AE74802F022FF95ED011A90
:101F8000F0EE410A95ED001AB0EE410AE148343016
:101F900002F01AFFD5ED020AF8EEE00AB0EE600A90
:101FA000DC48343002F009FFD5ED030AF8EEE00A10
:101FB000B0EE600AD748343002F002FF94ED051A03
:101FC000F0EE410A94ED041AB0EE410AD24802F054
:101FD000FBFED4ED060AF8EEE00AB0EE600ACE4849
:101FE00002F0EBFED4ED070AF8EEE00AB0EE600A6C
:101FF000C94802F0E5FE95ED051AF0EE410A95EDAF
:10200000041AB0EE410AC448343002F0DDFED5EDCA
:10201000060AF8EEE00AB0EE600ABF48343002F07B
:10202000CCFED5ED070AF8EEE00AB0EE600ABA4839
:10203000343002F0C5FE94ED091AF0EE410A94ED39
:10204000081AB0EE410AB54802F0BEFED4ED0A0A05
:10205000F8EEE00AB0EE600AB04802F0AEFED4ED51
:102060000B0AF8EEE00AB0EE600AAC4802F0A8FEF7
:1020700095ED091AF0EE410A95ED081AB0EE410A05
:10208000A648343002F0A0FED5ED0A0AF8EEE00AC8
:10209000B0EE600AA148343002F08FFED5ED0B0A95
:1020A000F8EEE00AB0EE600A9C48343002F088FE98
:1020B00094ED0D1AF0EE410A94ED0C1AB0EE410ABF
:1020C000974802F081FED4ED0E0AF8EEE00AB0EE79
:1020D000600A934802F071FED4ED0F0AF8EEE00AB0
:1020E000B0EE600A8E4802F06BFE95ED0D1AF0EE30
:1020F000410A95ED0C1AB0EE410A8948343002F0DD
:1021000063FED5ED0E0AF8EEE00AB0EE600A8448F0
:10211000343002F052FED5ED0F0AF8EEE00AB0EED0
:10212000600A7F48343002F04BFE94ED111AF0EE55
:10213000410A94ED101AB0EE410A7A4802F044FECA
:10214000D4ED120AF8EEE00AB0EE600A754802F02B
:1021500034FED4ED130AF8EEE00AB0EE600A7148DE
:1021600002F02EFE95ED111AF0EE410A95ED101ACF
:10217000B0EE410A6B48343002F026FED5ED120A6B
:10218000F8EEE00AB0EE600A6648343002F015FE60
:10219000D5ED130AF8EEE00AB0EE600A614834307B
:1021A00002F00EFE94ED151AF0EE410A94ED141AA9
:1021B000B0EE410A5C4802F007FED4ED160AF8EED4
:1021C000E00AB0EE600A584802F0F7FDD4ED170AB5
:1021D000F8EEE00AB0EE600A534802F0F1FD95ED2A
:1021E000151AF0EE410A95ED141AB0EE410A4E4868
:1021F000343002F0E9FDD5ED160AF8EEE00AB0EE53
:10220000600A4948343002F0D8FDD5ED170AF8EEDF
:10221000E00AB0EE600A4448343002F0D1FD94ED9B
:10222000191AF0EE410A94ED181AB0EE410A3F482F
:1022300002F0CAFDD4ED1A0AF8EEE00AB0EE600A28
:102240003A4802F0BAFDD4ED1B0AF8EEE00AB0EE0F
:10225000600A364802F0B4FD95ED191AF0EE410A15
:1022600095ED181AB0EE410A3048343002F0ACFD5A
:10227000D5ED1A0AF8EEE00AB0EE600A2B483430C9
:1022800002F09BFDD5ED1B0AF8EEE00AB0EE600A05
:102290002648343002F094FD94ED1D1AF0EE410A08
:1022A00094ED1C1AB0EE410A214802F08DFDD4EDE8
:1022B0001E0AF8EEE00AB0EE600A1D4802F07DFD4D
:1022C000D4ED1F0AF8EEE00AB0EE600A184802F0FA
:1022D00077FD95ED1D1AF0EE410A95ED1C1AB0EE52
:1022E000410A1348343002F06FFDD5ED1E0AF8EEB6
:1022F000E00AB0EE600A0E48343002F05EFDD5ED23
:102300001F0AF8EEE00AB0EE600A0948343002F025
:1023100057FD70BDA80000203C010020D001002026
:1023200064020020F80200208C030020200400201A
:10233000B404002070B5002100230F22C4781CB320
:10234000174C246804F4E064C4F5E064C4F3072186
:10235000C1F10404E3B20A4144789C40E1B28478BC
:10236000144021430C07210E0E4C0578615504786A
:1023700004F01F050124AC4005786D11AD0005F196
:10238000E025C5F8004109E0047804F01F050124A8
:10239000AC40054D0678761145F8264070BD00002A
:1023A0000CED00E000E400E080E100E002490143C0
:1023B000024A1160704700000000FA050CED00E0D1
:1023C00070B506460024351DA2E0285DC02840D027
:1023D00012DCA52829D008DC90281ED0A02821D006
:1023E000A12820D0A22877D11EE0B02826D0B1287D
:1023F00025D0B228F7D123E0D1287BD006DCC12834
:1024000028D0C22827D0D028EDD12DE0D92865D0FA
:10241000E02879D0F02879D174E068783F490870D5
:10242000A41C74E000BF00BF00BF29193C4851F84C
:10243000012F026089888180E41D68E000BF00BF31
:102440002919384851F8012F026089888180E41DDC
:102450005DE000BF00BF2919334851F8012F026029
:1024600089888180E41D52E0601C295CA01C285CE6
:1024700001EB002000B200EE100AB8EEC00ADFED5A
:102480002B0A80EE201A2A4880ED001AE01C295CF5
:10249000201D285C01EB002000B200EE100AB8EE0F
:1024A000C00ADFED220A80EE201A214880ED011AD1
:1024B000601D295CA01D285C01EB002000B200EE2D
:1024C000100AB8EEC00AF2EE040A80EE201A18488C
:1024D00080ED021AE41D1AE018E00BE029191448F7
:1024E00051F8012F02604A684260896881600D34AA
:1024F0000DE009E02819411C10220E48FDF7FCFFF1
:10250000113404E0641D02E0641D00E000BF00BF60
:10251000B6F88400A0423FF758AF70BD64000020B9
:1025200052000020580000205E0000200000C84239
:10253000841500209015002010B5044661480078ED
:1025400007287DD2DFE800F0040A333D4D536300D5
:102550005A2C02D101205B490870B0E05A4800684B
:1025600080F888405848006890F88800A52804D072
:10257000A62806D0A72818D10FE0022051490870DC
:1025800013E05248006820B14F4800684F4909687D
:10259000884700204B49087007E000204A49096835
:1025A000086006204749087000BF00BF87E0464822
:1025B0000068A0F8844046488470032041490870B0
:1025C0007DE041480068B0F8840040EA04203E49BC
:1025D0000968A1F884003E48C47004203949087095
:1025E0006DE03C48048005203649087067E03948B2
:1025F000008840EA042037490880002032490968F1
:1026000008603549088006202E49087057E02E489A
:10261000006801682C4800680068401C2A4A12685B
:10262000106029480068001D44542748006890F84D
:102630008800A72813D1244800680068082800E013
:1026400039E00CD3082020490968A1F884001E480D
:1026500000681E490968884700201A4908701A480E
:102660000068006818490968B1F88410884221D3CD
:102670001548006890F88800A5281BD10422144949
:10268000154802F023FA1048006802680E480168F5
:10269000091D114802F01AFA0F4800880D490988EF
:1026A000884204D108480068084909688847002022
:1026B0000449087003E000200249087000BF00BF11
:1026C000002010BD740000206C0000206800002075
:1026D00075000020700000207200002070B50446D4
:1026E0000D46044805608C212046FDF752FF024844
:1026F000046070BD680000206C00002029B1064A0B
:1027000012680243044B1A6004E0034A12688243D1
:10271000014B1A60704700003038024029B1064A68
:1027200012680243044B1A6004E0034A12688243B1
:10273000014B1A60704700004038024029B1064A38
:1027400012680243044B1A6004E0034A1268824391
:10275000014B1A60704700002038024029B1064A38
:1027600012680243044B1A6004E0034A1268824371
:10277000014B1A60704700004438024029B1064AF4
:1027800012680243044B1A6004E0034A1268824351
:10279000014B1A607047000024380240F0B5002158
:1027A00000220024022500260223324F3F6807F052
:1027B0000C0121B1042905D0082937D105E02E4F9D
:1027C000076036E02D4F076033E02A4F3F1F3F6818
:1027D000C7F38056274F3F1F3F6807F03F036EB196
:1027E000264FB7FBF3F7DFF88CC0ACF1040CDCF834
:1027F00000C0CCF3881C07FB0CF40CE01E4FB7FBA9
:10280000F3F7DFF870C0ACF1040CDCF800C0CCF3D7
:10281000881C07FB0CF4174F3F1F3F68C7F30147A5
:102820007F1C7D00B4FBF5F7076002E0124F0760E4
:1028300000BF00BF0F4F3F6807F0F0010909104FBC
:102840007A5C0768D74047600A4F3F6807F4E05159
:10285000890A0B4F7A5C4768D7408760054F3F680D
:1028600007F46041490B064F7A5C4768D740C76060
:10287000F0BD0000083802400024F400001BB7003F
:10288000841200200CB5002001900090414800689F
:1028900040F480303F49086000BF3E48006800F4C3
:1028A000003000900198401C0190009818B90198E0
:1028B000B0F5A04FF1D13748006800F4003010B1F6
:1028C0000120009001E0002000900098012860D1D4
:1028D00030484030006840F080502E494031086058
:1028E0002D48006840F440402B49086029480830D2
:1028F00000682849083108600846006840F4004034
:1029000008600846006840F4A05008602348091F8A
:102910000860081F006840F08070091F086000BF51
:102920001C48006800F000700028F9D01A480068C0
:1029300040F480301849086000BF1748406800F430
:1029400080300028F9D01448006840F40030124963
:10295000086000BF1048406800F400300028F9D03B
:1029600040F205700E4908600A480830006820F0FF
:1029700003000849083108600846006840F002007A
:10298000086000BF03480830006800F00C00082809
:10299000F8D10CBD00380240007000400C5A4007CE
:1029A000003C024010B504F0CBFE012801D004F039
:1029B000CFFA10BD10B51548006840F470001349F7
:1029C00008601348006840F00100114908600020C9
:1029D0000F49083108600E4800680E4908400C494C
:1029E00008600D48091D0860081F006820F4802059
:1029F000091F0860002006490C310860FFF742FFFC
:102A00004FF0006001498039086010BD88ED00E09A
:102A100000380240FFFFF6FE1030002421B102888A
:102A200042F08002028004E002884FF67F731A4071
:102A30000280704721B1028842F00102028004E066
:102A400002884FF6FE731A400280704731B1B0F829
:102A5000442042F40042A0F8442005E0B0F84420AD
:102A6000C2F30E02A0F844207047000070B50024A5
:102A700000220023058C4FF6FE7635400584028C3B
:102A80008388048B4FF68F752C40B51E2C400D8823
:102A90002C43751E2A408D892A434D882A43104DA8
:102AA000A84202D00F4DA84213D14FF6F7752A4025
:102AB000CD892A434FF6FB752A408D882A434FF66D
:102AC000FF652B404FF6FF552B400D8A2B434D8A57
:102AD0002B43838004838D684563028470BD0000AE
:102AE00000000140000401400A460021018B4FF61E
:102AF000F7731940114301837047000070B500243B
:102B000000220023058C4FF6EF7635400584028CB9
:102B10008388048B48F6FF752C404FF6FF452C4008
:102B20000D884FF6FF7606EA05252C434FF6DF7534
:102B30002A408D8906EA05152A434D8806EA0515BF
:102B40002A43154DA84202D0144DA8421DD14FF67C
:102B50007F752A40CD894FF6FF7606EA05152A4390
:102B60004FF6BF752A408D8806EA05152A434FF6B1
:102B7000FF352B404FF2FF752B400D8A06EA850585
:102B80002B434D8A06EA85052B43838004838D6899
:102B90008563028470BD0000000001400004014014
:102BA0000A460021018B4FF2FF7319404FF6FF7365
:102BB00003EA0223194301837047000070B5002423
:102BC00000220023058C4FF6FF6635400584028CF9
:102BD0008388848B4FF68F752C404FF6FC752C4004
:102BE0000D882C434FF6FF552A408D894FF6FF760E
:102BF00006EA05252A434D8806EA05252A43154D90
:102C0000A84202D0144DA8421DD14FF2FF752A40B0
:102C1000CD894FF6FF7606EA05252A434FF6FF35A4
:102C20002A408D8806EA05252A434EF6FF752B407B
:102C30004DF6FF752B400D8A06EA05152B434D8A8C
:102C400006EA05152B43838084838D68C56302845F
:102C500070BD000000000140000401400A46002150
:102C6000818B4FF6F7731940114381837047000041
:102C700070B5002200230024058C4EF6FF76354007
:102C80000584038C8488828B48F6FF752A404FF6B2
:102C9000FF452A400D884FF6FF7606EA05252A43B0
:102CA0004DF6FF752B408D8906EA05352B434D887F
:102CB00006EA05352B430A4DA84202D0094DA84229
:102CC00008D14BF6FF752C400D8A4FF6FF7606EAC9
:102CD00085152C43848082838D680564038470BDD0
:102CE00000000140000401400A460021818B4FF2A0
:102CF000FF7319404FF6FF7303EA022319438183E0
:102D000070474163704781637047C163704700003B
:102D100000220288184B98420ED0184B98420BD0D4
:102D2000B0F1804F08D0164B984205D0154B984211
:102D300002D0154B984204D14FF68F731A404B883E
:102D40001A43124B984207D0114B984204D04FF6C9
:102D5000FF431A400B891A4302804B68C3620B88F9
:102D60000385054B984202D0044B984201D18B7ADF
:102D70000386012383827047000001400004014064
:102D80000004004000080040000C0040001000401B
:102D9000001400402DED0A8B82B0002001909FE0CE
:102DA00050480068401C4F490860012206214E48E7
:102DB000FFF740F8062207214B48FFF73BF80122B6
:102DC00008214948FFF736F8642209214648FFF7F1
:102DD00031F801220A214448FFF72CF801220B2187
:102DE0004148FFF727F802220C213F48FFF722F85D
:102DF00001220D213C48FFF71DF801220F213A481E
:102E0000FFF718F801220E213748FFF713F80122C7
:102E100004213548FFF70EF8022205213248FFF75A
:102E200009F8642210213048FFF704F8012211212B
:102E30002D48FEF7FFFF2B48006840F2DC51884226
:102E400015DC2A4890ED000A294880ED000A274841
:102E500090ED010A264880ED010A244890ED020A0F
:102E6000234880ED020A2148006A214908621D4872
:102E7000006840F2DC51884207DBB0EE080A00F03F
:102E8000FDF84FF4FA60174908601A48006804F02A
:102E9000D9FF41EC1A0B1848006804F0D3FF41EC4D
:102EA0001C0B9FED160B53EC102B04F023FF41EC91
:102EB0001B0B53EC1A2B04F01DFF41EC190B04F013
:102EC000E7FE08EE100AB0EE001AF0EE480A0D48D0
:102ED00090ED000A02F0B4F8012101A803F08EFD84
:102EE0005EE700002005002090130020B0140020B1
:102EF000D4140020540500205005002000000000DC
:102F0000000024401C0000200025002421E011487E
:102F10000068D0B100235A1E19460E48006804F01C
:102F20006BF80546012D14D1002409E00A48065D1E
:102F30003046FFF701FB094801F0E6FD601C84B252
:102F400007480088844204DAF0E715B90A2003F044
:102F50001BFDDCE71C05002030140020B01400200D
:102F6000500000201CB503220021012004F00AF8C3
:102F70001C4908600020052103464FF49672CDE9F4
:102F8000001019A11B4804F0ABFB002004210346EC
:102F90004FF4FA72CDE9001017A11A4804F0A0FB13
:102FA0000020042103464FF49672CDE9001016A1CB
:102FB000194804F095FB0020042103464FF4967253
:102FC000CDE9001015A11B4804F08AFB0020042164
:102FD00003464FF49672CDE9001017A11A4804F089
:102FE0007FFB1CBD1C0500205461736B5F4D616944
:102FF0006E0000004D3000086B65795F636F6E7482
:1030000061736B00255100085461736B5F446174F8
:103010006147657400000000952D00085461736BD2
:103020005F48693231396D446174614465636F642E
:1030300065000000092F00085461736B5F54696DCF
:1030400065436F756E7400006B30000808B5002092
:10305000009009E0002001F0E5FE044602F074F95A
:103060000121684603F0CAFCF4E708B5002000908F
:1030700003E00121684603F0C1FCFAE76848D0ED9F
:10308000020A684890ED021A70EEC10A6648C0ED67
:10309000000A6348D0ED010A624890ED011A70EE13
:1030A000C10A9FED621A60EE810A6148C0ED000A14
:1030B0005D48D0ED000A9FED5F1AF4EEC10AF1EE13
:1030C00010FA08DCD0ED000A9FED5B1AF4EEC10A9D
:1030D000F1EE10FA47D25448D0ED000AF1EE600A42
:1030E00060EE800A5548C0ED000A4F48D0ED000A56
:1030F00060EE800A5148C0ED010A4B48D0ED000A4D
:1031000060EE800A4D48C0ED020A4748D0ED000A43
:10311000F1EE600A60EE800A4848C0ED030A4248BA
:10312000D0ED000AF1EE600A60EE800A4348C0ED7F
:10313000040A3D48D0ED000A60EE800A3F48C0ED29
:10314000050A3948D0ED000A60EE800A3B48C0ED20
:10315000060A3548D0ED000AF1EE600A60EE800AFA
:103160003648C0ED070A3248D0ED000A9FED311A0B
:10317000F4EEC10AF1EE10FA08DCD0ED000A9FED82
:103180002E1AF4EEC10AF1EE10FA47D22848D0ED1B
:10319000000A60EE800A2A48C0ED000A2448D0EDFB
:1031A000000AF1EE600A60EE800A2548C0ED010ACF
:1031B0001F48D0ED000A60EE800A2148C0ED020AE7
:1031C0001B48D0ED000AF1EE600A60EE800A1C4850
:1031D000C0ED030A1648D0ED000AF1EE600A60EE79
:1031E000800A1748C0ED040A1148D0ED000A60EECD
:1031F000800A1348C0ED050A0D48D0ED000AF1EE33
:10320000600A60EE800A0E48C0ED060A0848D0ED5C
:10321000000A60EE800A0A48C0ED070A7047000005
:10322000D4140020B0140020340B00209A99193FC8
:10323000380B0020CDCCCC3DCDCCCCBD40160020F1
:103240006016002010B53448D0ED000A334890EDE8
:10325000001A70EE810AB0EE600A314800F039FBC6
:103260002D48D0ED010A2D4890ED011A70EE810A2B
:10327000B0EE600A2B4800F02CFB2748D0ED020A84
:10328000264890ED021A70EE810AB0EE600A2648D8
:1032900000F01FFB2048D0ED030A204890ED031AF0
:1032A00070EE810AB0EE600A204800F012FB1A4866
:1032B000D0ED040A194890ED041A70EE810AB0EEC0
:1032C000600A1B4800F05CFB1348D0ED050A134868
:1032D00090ED051A70EE810AB0EE600A154800F014
:1032E0004FFB0D48D0ED060A0C4890ED061A70EE23
:1032F000810AB0EE600A104800F042FB0648D0EDAB
:10330000070A064890ED071A70EE810AB0EE600ACF
:103310000A4800F035FB10BD00160020740500209F
:103320007C00002010010020A401002038020020B1
:10333000CC02002060030020F40300208804002059
:1033400008B540F224411C4800F0F8F998B31A4837
:10335000001D00881848008800211848FEF798FBD7
:103360001648001D0068C0F1800015490880154905
:103370001248FEF773FB00BF1048FEF758FC002808
:10338000FAD180210D48FEF797FC01210B48FEF78A
:103390007FFB0D48006870B169460B48006804F077
:1033A000D1F8009838B14FF0805008490860BFF359
:1033B0004F8FBFF36F8F08BD007C0040A0600240BC
:1033C00050000020000030201C05002004ED00E02B
:1033D00010B540F22441294800F0B0F900284BD044
:1033E00026480088254880882548FEF72EFC08BB23
:1033F00000212348FEF74CFB2148FEF722FCC0F1D8
:103400001E00204908601E201D49091D0860081F74
:10341000006840F40020091F086001211848FEF7E9
:1034200037FB18480068122826D11749174801F0C1
:1034300007FD21E000211248FEF72AFB1048FEF7A5
:1034400000FCC0F11E000F4908601E200C49091D38
:103450000860081F006820F40020091F086001218F
:103460000748FEF715FB07480068122804D10649F3
:103470001E31064801F0E4FC10BD000000100140C0
:10348000406402403C0000205413002090130020B0
:1034900010B540F225514C4800F050F901287CD17C
:1034A00040F22551484800F0ACF8474800F000FAD7
:1034B00000EE100AB8EE400A444880ED000A90ED94
:1034C000000ABDEEC00A10EE100A4149414A1268D6
:1034D00041F822003F48006860B10846406859281A
:1034E00003D000203B49086004E03A480068401CD3
:1034F0003849086036480068592803D0002035490B
:10350000086005E03348006810B9012031490860BF
:1035100030480068092855D100202E4908602C4801
:1035200000682B49496808442949896808442849A2
:10353000C968084426490969084425494969084475
:103540002349896908442249C96908442249086015
:10355000084600682149096890FBF1F201FB12005E
:103560001B49096A88422DD1194880681849C968E1
:1035700040EA012000EE100AB8EEC00A184880EDBB
:10358000000A134800691249496940EA012000EE27
:10359000100AB8EEC00A134800E013E080ED000AFC
:1035A0000B4880690A49C96940EA012000EE100A07
:1035B000B8EEC00A0C4880ED000AB7EE000A0B48CE
:1035C00080ED000A10BD000000140140180000202A
:1035D0003013002034000020280000203800002094
:1035E0001C00002020000020240000202C000020CF
:1035F00001F40072B2F5007F00D100BFCA4302801F
:10360000704710B50022002340F66A14A14200D191
:1036100000BF0A1201249440A3B2DC43048010BD11
:1036200021B1828942F40052828104E082894DF600
:10363000FF731A40828170471AB1838A0B438382D9
:1036400002E0838A8B4383827047000010B50446F2
:103650003248844208D101211020FFF78FF8002161
:103660001020FFF78BF857E02D48844209D1012143
:103670004804FFF763F800214FF40030FFF75EF8CD
:103680004AE02848844209D101218804FFF756F80E
:1036900000214FF48020FFF751F83DE0224884429A
:1036A00009D10121C804FFF749F800214FF4002097
:1036B000FFF744F830E01D48844209D10121080594
:1036C000FFF73CF800214FF48010FFF737F823E0B4
:1036D0001748844208D101212020FFF74FF800212C
:1036E0002020FFF74BF817E01248844209D101214E
:1036F0008807FFF723F800214FF08040FFF71EF8FE
:103700000AE00D48844207D101214005FFF716F871
:1037100000216005FFF712F810BD00000010014005
:103720000044004000480040004C00400050004071
:103730000014014000780040007C004070B5024653
:10374000002400230025002040F66A16B14200D173
:1037500000BFC1F3421501F01F03012606FA03F36F
:10376000012D02D19689334006E0022D02D1168A3E
:10377000334001E0968A33400C12012606FA04F425
:103780001688344013B10CB1012000E0002070BD58
:10379000F0B50346002400260025002040F66A17F5
:1037A000B94200D100BF1846C1F3421401F01F0610
:1037B000012707FA06F5012C01D10C3004E0022C98
:1037C00001D1103000E014301AB107682F430760B0
:1037D00002E00768AF430760F0BD00002DE9FF4736
:1037E00005460E460024A14600BFA046B08900B1A0
:1037F00000BF2C8A24F44054F08804432C82AC8906
:1038000041F20C608443B0883189084371890843D0
:103810000443AC81AC8A24F44074B0890443AC8284
:103820006846FEF7BBFF2048854202D01F4885420C
:1038300002D1DDF80C9001E0DDF80890A88900F4D1
:10384000004040B109EBC90000EB091031684900A4
:10385000B0FBF1F707E009EBC90000EB0910316894
:103860008900B0FBF1F76420B7FBF0F004012009F8
:10387000642101FB1078A88900F4004040B1322097
:1038800000EBC800B0FBF1F000F00700044308E0D3
:10389000322000EB08106421B0FBF1F000F00F00C3
:1038A00004432C81BDE8FF87001001400014014053
:1038B00001468888C0F3080070474FF41651016034
:1038C00000218180C18001810C2141810021818101
:1038D000704710B52DED028B0446B0EE408AB0EE75
:1038E000480A04F1600001F07BFAD4ED060AB0EE5C
:1038F000600A04F1600001F05DFA04F1600001F07B
:10390000E3F904F1600001F052FAF0EE408AB0EE03
:10391000680A204600F004F8BDEC028B10BD0000E0
:1039200010B52DED028B0446B0EE408AB0EE480A89
:1039300004F12C0001F054FAB4F91C0000EE900AD6
:10394000F8EEE00AB0EE600A04F12C0001F032FA61
:1039500004F12C0001F0B8F904F12C0001F027FA71
:10396000F0EE408A2178BDEEE80A10EE100A02B2AD
:103970000248FDF7B7FFBDEC028B10BD00640040AC
:1039800010B52DED028B0446B0EE408AB0EE480A29
:1039900004F1600001F024FAD4ED060AB0EE600AEA
:1039A00004F1600001F006FA04F1600001F08CF906
:1039B00004F1600001F0FBF9F0EE408AB0EE680A15
:1039C000204600F003F8BDEC028B10BD10B52DEDC4
:1039D000028B0446B0EE408AB0EE480A04F12C0097
:1039E00001F0FEF9B4F91C0000EE900AF8EEE00ACE
:1039F000B0EE600A04F12C0001F0DCF904F12C00B7
:103A000001F062F904F12C0001F0D1F9F0EE408AE6
:103A10002178BDEEE80A10EE100A02B20248FDF766
:103A200061FFBDEC028B10BD0068004000BF704715
:103A300070B506460C461546012E7CD1012C7AD174
:103A4000002D78D10020FE490860FE4890ED000A64
:103A5000FD48D0ED000A70EE200AFC4890ED000A07
:103A6000B8EEC00A30EE800AF94880ED000AF54849
:103A700090ED010AF448D0ED010A70EE200AF348F7
:103A800090ED010AB8EEC00A30EE800AF04880EDF1
:103A9000010AEC4890ED020AEB48D0ED020A70EE04
:103AA000200AEA4890ED020AB8EEC00A30EE800A19
:103AB000E74880ED020AE34890ED030AE248D0EDC2
:103AC000030A70EE200AE14890ED030AB8EEC00A3E
:103AD00030EE800ADE4880ED030ADA4890ED040AF1
:103AE000D948D0ED040A70EE200AD84890ED040AB7
:103AF000B8EEC00A30EE800AD54880ED040AD148FD
:103B000090ED050AD048D0ED050A70EE200ACF48A6
:103B100090ED050AB8EEC00A30EE800ACC4880ED80
:103B2000050AC84890ED060AC748D0ED060A70EEAF
:103B3000200AC64800E01BE090ED060AB8EEC00A75
:103B400030EE800AC24880ED060ABE4890ED070AB2
:103B5000BD48D0ED070A70EE200ABC4890ED070A78
:103B6000B8EEC00A30EE800AB94880ED070A20E2BC
:103B7000012E7CD1012CFCD1012DFAD10520B049B8
:103B80000860B4480068072802DD0020B1490860D9
:103B9000B0480068002802DA0720AE490860A9484A
:103BA00090ED000AA848D0ED000A70EE200AA74860
:103BB00090ED000AB8EEC00A30EE800AA648A5498A
:103BC000096800EB8100D0ED000A9FEDA41A01EE18
:103BD000200A9F4880ED000A9A4890ED010A9A4811
:103BE000D0ED010A70EE200A984890ED010AB8EE77
:103BF000C00A30EE800A9A489649096800EB8100B5
:103C0000D0ED000A30EE200A914880ED010A8D487F
:103C100090ED020A8C48D0ED020A70EE200A8B4823
:103C200090ED020AB8EEC00A30EE800A8D4889494C
:103C3000096800EB8100D0ED000A30EE200A8448CC
:103C400080ED020A7F4890ED030A7F48D0ED030A19
:103C500070EE200A7D4890ED030AB8EEC00A30EEFF
:103C6000800A81487B49096800EB810000E073E02D
:103C7000D0ED000A30EE200A754880ED030A714845
:103C800090ED040A7048D0ED040A70EE200A6F48E7
:103C900090ED040AB8EEC00A30EE800A73486D4910
:103CA000096800EB8100D0ED000A30EE200A684878
:103CB00080ED040A634890ED050A6348D0ED050ADB
:103CC00070EE200A614890ED050AB8EEC00A30EEA9
:103CD000800A67485F49096800EB8100D0ED000A5F
:103CE00030EE200A5A4880ED050A564890ED060A43
:103CF0005548D0ED060A70EE200A544890ED060AA9
:103D0000B8EEC00A30EE800A5A485249096800EB02
:103D10008100D0ED000A30EE200A4D4880ED060A01
:103D2000484890ED070A4848D0ED070A70EE200A8F
:103D3000464890ED070AB8EEC00A30EE800A4E48B9
:103D40004449096800EB8100D0ED000A30EE200AFA
:103D50003F4880ED070A0AE7022E6FD1012CFCD103
:103D6000002DFAD145480068072802DD00204349AC
:103D7000086042480068002802DA07203F490860CE
:103D80006FF007002E4908602E4890ED000A2E487B
:103D9000D0ED000A70EE200A2C4890ED000AB8EE33
:103DA000C00A30EE800A36483449096800EB8100C9
:103DB000D0ED000A30EE200A254880ED000A2148A7
:103DC00090ED010A2048D0ED010A70EE200A1F484C
:103DD00090ED010AB8EEC00A30EE800A2948274962
:103DE000096800EB8100D0ED000A30EE200A184887
:103DF00080ED010A134890ED020A1348D0ED020A43
:103E000070EE200A114890ED020AB8EEC00A30EEBA
:103E1000800A1D481949096800EB8100D0ED000AAD
:103E2000B7EE001A01EE200A094880ED020A0548A3
:103E300090ED030A0448D0ED030A27E0BAE0000041
:103E40005405002040160020601600202016002097
:103E500000160020FC0A0020FC0500206666663F74
:103E60001C0600203C0600205C0600207C0600208A
:103E70009C060020BC060020DC060020000B002071
:103E8000FC0600201C0700203C07002070EE200AE2
:103E9000FE4890ED030AB8EEC00A30EE800AFC48F6
:103EA000FC49096800EB8100D0ED000AB7EE001A6A
:103EB00001EE200AF84880ED030AF84890ED040A64
:103EC000F748D0ED040AB7EE001A01EE200AEF48D9
:103ED000D0ED040AF8EEE00A30EE200AF148ED4990
:103EE000096800EB8100D0ED000A9FEDEF1A01EEAA
:103EF000200AE94880ED040AE84890ED050AE84800
:103F0000D0ED050AB7EE001A01EE200ADF48D0ED29
:103F1000050AF8EEE00A30EE200AE448DD490968B7
:103F200000EB8100D0ED000A9FEDDF1A01EE200AC0
:103F3000D94880ED050AD94890ED060AD848D0ED59
:103F4000060AB7EE001A01EE200AD048D0ED060AA4
:103F5000F8EEE00A30EE200AD548CE49096800EBB9
:103F60008100D0ED000AB7EE001A01EE200ACA481F
:103F700080ED060AC94890ED070AC948D0ED070A46
:103F8000B7EE001A01EE200AC048D0ED070AF8EE9D
:103F9000E00A30EE200AC748BE49096800EB8100FC
:103FA000D0ED000AB7EE001A01EE200ABA4880ED03
:103FB000070A30E2032E7DD1012CFCD1002DFAD16D
:103FC000BD480068072802DD0020BB490860BA48E8
:103FD0000068002802DA0720B74908606FF0070080
:103FE000B6490860AD4890ED000AAD48D0ED000A32
:103FF00070EE200AA54890ED000AB8EEC00A30EE37
:10400000800AAF48AC49096800EB8100D0ED000A96
:104010009FEDAC1A01EE200A9F4880ED000A9F48F0
:1040200090ED010A9E48D0ED010A70EE200A9748F3
:1040300090ED010AB8EEC00A30EE800AA2489E490F
:10404000096800EB8100D0ED000A9FED9E1A01EE99
:10405000200A914880ED010A904890ED020A9048AC
:10406000D0ED020A70EE200A884890ED020AB8EE00
:10407000C00A30EE800A95488F49096800EB81003C
:10408000D0ED000A9FED8F1A01EE200A824880EDE4
:10409000020A824890ED030A8148D0ED030A70EECF
:1040A000200A7A4890ED030AB8EEC00A30EE800A82
:1040B000874800E081E08049096800EB8100D0ED8D
:1040C000000A9FED801A01EE200A734880ED030A72
:1040D000724890ED040A7248D0ED040A70EE200A8E
:1040E0006A4890ED040AB8EEC00A30EE800A7948BA
:1040F0007149096800EB8100D0ED000A1FEDA91A93
:1041000001EE200A644880ED040A644890ED050A37
:104110006348D0ED050A70EE200A5C4890ED050A70
:10412000B8EEC00A30EE800A6B486349096800EBBC
:104130008100D0ED000A1FEDB71A01EE200A5648A3
:1041400080ED050A554890ED060A5548D0ED060A5F
:1041500070EE200A4D4890ED060AB8EEC00A30EE27
:10416000800A5E485449096800EB8100D0ED000ADE
:104170001FEDC61A01EE200A474880ED060A47489F
:1041800090ED070A4648D0ED070A70EE200A3F4836
:1041900090ED070AB8EEC00A30EE800A5048464952
:1041A000096800EB8100D0ED000A1FEDD41A01EE82
:1041B000200A394880ED070A2DE1012E64D1022C36
:1041C000FCD1002DFAD147480068072802DD002005
:1041D0004449086043480068002802DA0720414942
:1041E00008600520354908602C4890ED000A2C48ED
:1041F000D0ED000A70EE200A244890ED000AB8EED7
:10420000C00A30EE800A38483649096800EB810060
:10421000D0ED000A30EE200A1F4880ED000A1F484A
:1042200090ED010A1E48D0ED010A70EE200A1748F1
:1042300090ED010AB8EEC00A30EE800A2B482949F9
:10424000096800EB8100D0ED000A30EE200A124828
:1042500080ED010A114890ED020A1148D0ED020AE2
:1042600070EE200A094890ED020AB8EEC00A30EE5E
:10427000800A1F481B49096800EB8100D0ED000A45
:1042800030EE200A044835E0C6E000002016002089
:104290005C070020000B00200016002040160020C4
:1042A000601600207C070020CDCC8C3F9C070020AE
:1042B000BC070020DC070020040B00205405002070
:1042C000FC0700209A99993F1C0800203C08002018
:1042D0005C0800207C0800209C080020BC0800200E
:1042E000DC080020080B0020FC0800201C0900202E
:1042F0003C09002080ED020AFE4890ED030AFE48CA
:10430000D0ED030A70EE200AFC4890ED030AB8EEE7
:10431000C00A30EE800AFA48FA49096800EB8100C9
:10432000D0ED000A30EE200AF74880ED030AF1488C
:1043300090ED040AF048D0ED040A70EE200AEF4830
:1043400090ED040AB8EEC00A30EE800AEF48ED495D
:10435000096800EB8100D0ED000A1FED261A01EE7E
:10436000200AE94880ED040AE24890ED050AE24897
:10437000D0ED050A70EE200AE04890ED050AB8EE8F
:10438000C00A30EE800AE248DE49096800EB81008D
:10439000D0ED000A1FED351A01EE200ADA4880ED53
:1043A000050AD44890ED060AD348D0ED060A70EE0F
:1043B000200AD24890ED060AB8EEC00A30EE800A14
:1043C000D448D049096800EB8100D0ED000A1FED08
:1043D000431A01EE200ACC4880ED060AC54890ED4C
:1043E000070AC548D0ED070A70EE200AC34890EDD1
:1043F000070AB8EEC00A30EE800AC748C14909680A
:1044000000EB8100D0ED000A1FED521A01EE200AE8
:10441000BD4880ED070A29E3012E7CD1032CFCD195
:10442000002DFAD1BD480068072802DD0020BB49F5
:104430000860BA480068002802DA0720B749086017
:104440000520B7490860AB4890ED000AAA48D0EDB6
:10445000000A70EE200AA94890ED000AB8EEC00AE2
:1044600030EE800AAF48AD49096800EB8100D0ED1D
:10447000000A30EE200AA44880ED000A9D4890ED25
:10448000010A9D48D0ED010A70EE200A9B4890ED8C
:10449000010AB8EEC00A30EE800AA3489F490968B5
:1044A00000EB8100D0ED000A30EE200A964880ED46
:1044B000010A904890ED020A8F48D0ED020A70EE92
:1044C000200A8E4890ED020AB8EEC00A30EE800A4B
:1044D00096489249096800EB8100D0ED000A30EE61
:1044E000200A894880ED020A824890ED030A82483A
:1044F000D0ED030A70EE200A804890ED030AB8EE72
:10450000C00A30EE800A8A488449096800EB8100BD
:10451000D0ED000A00E079E030EE200A7A4880ED24
:10452000030A744890ED040A7348D0ED040A70EE53
:10453000200A724890ED040AB8EEC00A30EE800AF4
:104540007C487649096800EB8100D0ED000A1FED38
:10455000A31A01EE200A6C4880ED040A654890ED2C
:10456000050A6548D0ED050A70EE200A634890ED13
:10457000050AB8EEC00A30EE800A6F48674909683C
:1045800000EB8100D0ED000A1FEDB21A01EE200A07
:104590005D4880ED050A574890ED060A5648D0ED73
:1045A000060A70EE200A554890ED060AB8EEC00AD9
:1045B00030EE800A61485949096800EB8100D0ED6E
:1045C000000A1FEDC01A01EE200A4F4880ED060ACE
:1045D000484890ED070A4848D0ED070A70EE200AD7
:1045E000464890ED070AB8EEC00A30EE800A5448FB
:1045F0004A49096800EB8100D0ED000A1FEDCF1A8F
:1046000001EE200A404880ED070A2FE2022E6FD10A
:10461000022CFCD1002DFAD14A494B48FDF78EFC03
:104620000F203F49086037480068072802DD002056
:104630003449086033480068002802DA072031490D
:10464000086040494048FDF779FC2A4890ED000A8F
:104650002948D0ED000A70EE200A284890ED000AA3
:10466000B8EEC00A30EE800A38482649096800EBE7
:104670008100D0ED000A30EE200A234880ED000AC8
:104680001C4890ED010A1C48D0ED010A70EE200A8A
:104690001A4890ED010AB8EEC00A30EE800A2C48A4
:1046A0001849096800EB8100D0ED000A30EE200ABD
:1046B000154880ED010A0F4890ED020A0E48D0ED32
:1046C000020A70EE200A0D4890ED020AB8EEC00A08
:1046D00030EE800A1F480B49096800EB8100D0EDDD
:1046E000000A30EE200A084880ED020A014833E053
:1046F000C1E00000401600206016002020160020B7
:104700005C090020080B0020001600207C09002016
:104710009C090020BC090020DC0900200C0B0020B3
:1047200054050020FC0900201C0A00203C0A00203F
:104730005C0A00207C0A00209C0A0020BC0A0020A1
:10474000DC0A0020BC0B00203C0B0020FC080020F1
:104750001C0900203C09002090ED030AC448D0ED5C
:10476000030A70EE200AC34890ED030AB8EEC00AAF
:1047700030EE800AC048C149096800EB8100D0EDE5
:10478000000A30EE200ABE4880ED030ABD4890EDD5
:10479000040AB748D0ED040A70EE200AB54890ED3F
:1047A000040AB8EEC00A30EE800AB748B349096877
:1047B00000EB8100D0ED000A9FEDB41A01EE200A53
:1047C000AF4880ED040AAF4890ED050AA848D0ED47
:1047D000050A70EE200AA74890ED050AB8EEC00A57
:1047E00030EE800AAA48A549096800EB8100D0EDA7
:1047F000000A9FEDA61A01EE200AA14880ED050AE5
:10480000A04890ED060A9A48D0ED060A70EE200AFC
:10481000984890ED060AB8EEC00A30EE800A9D482E
:104820009649096800EB8100D0ED000A9FED971AC8
:1048300001EE200A924880ED060A924890ED070AA0
:104840008B48D0ED070A70EE200A8A4890ED070ADF
:10485000B8EEC00A30EE800A8F488849096800EB3C
:104860008100D0ED000A9FED891A01EE200A8448EC
:1048700080ED070AFAE0022EFCD1032CFAD1002DBC
:10488000F8D186498648FDF759FB0F208549086015
:1048900085480068072802DD0020834908608248B7
:1048A0000068002802DA07207F490860754890ED0B
:1048B000000A6F48D0ED000A70EE200A6D4890EDB6
:1048C000000AB8EEC00A30EE800A784876490968D6
:1048D00000EB8100D0ED000A30EE200A684880ED40
:1048E000000A684890ED010A6148D0ED010A70EEB7
:1048F000200A604890ED010AB8EEC00A30EE800A46
:104900006B486949096800EB8100D0ED000A30EE80
:10491000200A5B4880ED010A5A4890ED020A54488B
:10492000D0ED020A70EE200A524890ED020AB8EE6D
:10493000C00A30EE800A5F485B49096800EB8100DD
:10494000D0ED000A30EE200A4D4880ED020A4D48B5
:1049500090ED030A4648D0ED030A70EE200A454860
:1049600090ED030AB8EEC00A30EE800A52484E4974
:10497000096800EB8100D0ED000A30EE200A4048C3
:1049800080ED030A3F4890ED040A3948D0ED040A4F
:1049900070EE200A374890ED040AB8EEC00A30EEF7
:1049A000800A46484049096800EB8100D0ED000AC2
:1049B0009FED361A01EE200A314880ED040A314895
:1049C00090ED050A2A48D0ED050A70EE200A294824
:1049D00090ED050AB8EEC00A30EE800A3848324938
:1049E000096800EB8100D0ED000A9FED281A01EE66
:1049F000200A234880ED050A224890ED060A1C484B
:104A0000D0ED060A70EE200A1A4890ED060AB8EEBC
:104A1000C00A30EE800A2B482349096800EB810068
:104A2000D0ED000A9FED191A01EE200A144880ED1E
:104A3000060A144890ED070A0D48D0ED070A70EEFB
:104A4000200A0C4890ED070AB8EEC00A30EE800A42
:104A50001D481549096800EB8100D0ED000A9FED63
:104A60000B1A01EE200A064880ED070A70BD00000F
:104A700060160020201600205C090020080B002092
:104A800000160020401600207C0900209A99993FCA
:104A90009C090020BC090020DC090020BC0B002080
:104AA0003C0B0020540500200C0B0020FC090020CA
:104AB0001C0A00203C0A00205C0A00207C0A00201E
:104AC0009C0A0020BC0A0020DC0A0020F0B5034646
:104AD0000C461888002113E0675C80EA0720002557
:104AE0000BE0460000F4004CBCF1000F03D041F293
:104AF000210C86EA0C0630466D1C082DF1D3491CAA
:104B00009142E9D31880F0BD10B586B0044601A8E3
:104B100000F080FA03A800F073FA94ED000A84ED27
:104B2000060A9DED040A84ED020A9DED050ADFEDFB
:104B3000320A30EE200A84ED000A9DED030ADFED13
:104B40002F0A30EEC00A84ED010ABDF90800404288
:104B500000EE100AB8EEC00AF2EE040A80EE201A47
:104B600084ED031ABDF9060000EE100AB8EEC00A83
:104B7000F2EE040A80EE201A84ED041ABDF9040056
:104B8000404200EE100AB8EEC00AF2EE040A80EECF
:104B9000201A84ED051A94ED000AD4ED060A30EED1
:104BA000600ADFED170AB4EEE00AF1EE10FA03DB5B
:104BB000206A401E20620FE094ED000AD4ED060A40
:104BC00030EE600ADFED0F0AB4EEE00AF1EE10FA03
:104BD00002D8206A401C2062D4ED000A4FF4B47160
:104BE000206A484300EE100AB8EEC00A30EE800A90
:104BF00084ED070A06B010BD000034430000B44342
:104C00000000A5430000A5C370B504460D46244826
:104C1000844220D12868A0F2012030B1012809D0B7
:104C200002280CD0032814D10EE029461D4801F0BB
:104C300021FA0FE029461C4801F01CFA0AE0294637
:104C40001A4801F017FA05E02946194801F012FA4E
:104C500000E000BF23E01748844220D12868A0F27A
:104C6000012030B1012809D002280CD0032814D12A
:104C70000EE02946104801F0FDF90FE029460F48E3
:104C800001F0F8F90AE029460D4801F0F3F905E0D2
:104C900029460C4801F0EEF900E000BF00BF70BDEE
:104CA000006400407C00002010010020A4010020CE
:104CB0003802002000680040CC0200206003002081
:104CC000F40300208804002090ED030AD0ED060ACA
:104CD00030EE600A80ED070A90ED000AD0ED070A79
:104CE00020EE200A80ED090A90ED070AD0ED080AAF
:104CF00030EE600AD0ED020A20EE200A80ED0A0AAA
:104D000090ED0B0AD0ED010A90ED071A00EE810A32
:104D100080ED0B0A90ED0B0AD0ED040AF1EE600A6B
:104D2000B4EEE00AF1EE10FA06D890ED040AB1EE06
:104D3000400A80ED0B0A0CE090ED0B0AD0ED040A5E
:104D4000B4EEE00AF1EE10FA03DB90ED040A80ED18
:104D50000B0A90ED090AD0ED0B0A30EE200AD0EDD7
:104D60000A0A30EE200A80ED0C0A90ED0C0AD0ED14
:104D7000050AF1EE600AB4EEE00AF1EE10FA06D888
:104D800090ED050AB1EE400A80ED0C0A0CE090EDC2
:104D90000C0AD0ED050AB4EEE00AF1EE10FA03DBDE
:104DA00090ED050A80ED0C0A90ED0C0A704790ED2D
:104DB0000C0A704780ED060A704780ED040A7047C0
:104DC00080ED050A7047000080ED000A9FED031A90
:104DD00080ED011AC0ED020A7047000000000000DB
:104DE00080ED030A70470000014651B1012904D04B
:104DF00002290ED0032910D107E00948B0F90000BC
:104E000070470748B0F90200FAE70548B0F9040016
:104E1000F6E70348B0F90600F2E74FF0FF30EFE79E
:104E200090130020014611B90448007C7047012905
:104E300002D10248407CF9E70020F7E790130020F8
:104E400070B504460D462878697840EA0120C0F321
:104E50000A00A0F5806020806878C010A97840EA38
:104E60004110C0F30A00A0F580606080A87880112E
:104E7000E97840EA8100297940EA8120C0F30A00FC
:104E8000A0F58060A08028794010697940EAC110BF
:104E9000C0F30A00A0F58060E08068790011800806
:104EA00020746879C0F301106074A879E97940EA48
:104EB000012000B2A082287A697A40EA012001B27A
:104EC000E182A87AE97A40EA012001B22183297BB4
:104ED000A176697BE176A87BE97B40EA0120E0834B
:104EE000287C697C40EA0120C0F30A00A0F58060BC
:104EF0006082287C2081687C6081E08B3749088053
:104F00000846007800F0010084F822000846007886
:104F1000C0F340012320015530480078C0F38001E0
:104F2000242001552D480078C0F3C00125200155EB
:104F30002A480078C0F3001127200155274800783F
:104F4000C0F340112620015524480078C0F3801199
:104F50002820015521480078C0F3C01129200155AF
:104F60001E480088C0F300212A2001551B480088F4
:104F7000C0F340212B20015518480088C0F3802140
:104F80002C20015515480088C0F3C0212D20015563
:104F900012480088C0F300312E2001550F480088C8
:104FA000C0F340312F2001550C480088C0F38031F8
:104FB0003020015509480088C10B312001554FF4BC
:104FC00080610748FCF725FF08B9012100E00021B6
:104FD00032200155297B3320015570BD400000204F
:104FE0000010024000BF054A128802F04002002A69
:104FF000F9D0C2B2014B1B1D1A807047004400401B
:105000000146034B0DCB81E80D00002070470000E6
:10501000841500200146034802680A608088888061
:10502000002070475800002010B503490348FDF7E1
:1050300055FB002010BD0000C1230008F81400201B
:1050400070EEC01A3548C0ED001AD0ED001A61EEBE
:10505000811AFDEEE11A3248C0ED001A2F48D0ED5A
:10506000001AF1EE611A61EE811AB7EE002A61EEC4
:10507000821AFDEEE11A2A48C0ED011A2748D0ED48
:10508000001AF1EE611A61EE811AFDEEE11A244870
:10509000C0ED021A2148D0ED001A61EE811AB7EE78
:1050A000002A61EE821AFDEEE11A1D48C0ED031AD6
:1050B0001A48D0ED001AF1EE611A61EE811AB7EECE
:1050C000002A61EE821AFDEEE11A1548C0ED041ABD
:1050D0001248D0ED001A61EE811AFDEEE11A104877
:1050E000C0ED051A0D48D0ED001A61EE811AB7EE39
:1050F000002A61EE821AFDEEE11A0948C0ED061A97
:105100000648D0ED001AF1EE611A61EE811AFDEE4B
:10511000E11A0348C0ED071A70470000300B002069
:105120002016002008B500200090CEE00020FFF7F8
:1051300079FE02287ED10120644908606449086034
:105140000020644908600220FFF74EFEB0F5167F8C
:1051500017DB61496148FCF7F1FE61480068401CBB
:105160005F49086008460068412807DB5D48006821
:10517000401C5C49086000205949086002205349DE
:1051800008600220FFF730FE10F5167F17DA564947
:105190005648FCF7D3FE56480068401C5449086046
:1051A00008460068462807DB52480068401C514901
:1051B000086000204E49086003204449086003202D
:1051C000FFF712FEB0F5FA7F17DB43494348FCF7BF
:1051D000B5FE49480068401C474908600846006819
:1051E0003C2807DB45480068401C44490860002013
:1051F000414908600220364908600320FFF7F4FDAA
:1052000010F5FA7F19DA34493448FCF797FE3C4828
:105210000068401C3A490860084600684B2807DBD4
:1052200038480068401C374908600020344908604D
:10523000032000E045E0264908600020FFF7D4FD88
:10524000B0F5167F07DB4B212F48FDF75AFD64218F
:105250002D48FDF758FD0020FFF7C6FD10F5167F1D
:1052600007DA32212848FDF74CFD46212648FDF794
:105270004AFD0120FFF7B8FDB0F5FA7F03DB5A21A4
:105280002148FDF742FD0120FFF7AEFD10F5FA7F42
:1052900003DA82211C48FDF738FD0E4802680C48ED
:1052A00001680A480068FEF7C3FB1848006810B997
:1052B000FDF7C8FF05E015480068012801D100F09E
:1052C000B9FF0121684601F099FB2FE7380500205E
:1052D0003C05002040050020DC0F00205C0F002072
:1052E00024050020000B0020CC0E00204C0E0020D6
:1052F00028050020040B00202C050020080B0020AE
:10530000300500200C0B0020000800406005002044
:1053100002461378012B02D109B9002313701378C8
:1053200033B9012904D10123137000BF012000E02B
:1053300000207047FBF7AEFCFCF774FDFDF712FE92
:1053400001F0A6FC00BFFEE710B50446012C04D016
:10535000022C2FD0032C33D114E01A491A48FCF741
:10536000EDFDFCF7BDFC1948006818B9002018498C
:10537000086006E015480068012802D1022014499F
:1053800008601DE013491448FCF7D8FD1048006878
:1053900010B901F035F80CE00D480068012802D181
:1053A00000F0F4FE05E00A480068022801D100F090
:1053B000D3FF05E00120064908600449086000BFEA
:1053C00000BF10BDBC0B00203C0B00208012002051
:1053D0007C120020BC0C00203C0C00202DE9F04188
:1053E00005460E461C4807681C480068001D01F071
:1053F0000DF950B91948006890F82C100120884028
:1054000017490968814316480160681C38B936B1EC
:1054100012480168091D134801F036F91AE07C1999
:105420000E4800684460BC4207D20C480168091D60
:105430000D48006801F00EF90CE008480168091DEC
:105440000A48006801F006F909480068844201D260
:1054500007480460BDE8F081A812002094120020E3
:10546000AC120020901900209C12002098120020FD
:10547000C412002010B5044601F012F92448006857
:10548000401C234908602348006840B92148046053
:105490000846006801280DD100F0EEF90AE01E4828
:1054A000006838B91B480068C06AE16A884201D8C0
:1054B0001848046019480068401C184908600846EC
:1054C0000068606494F82C10012088401449096831
:1054D000084313490860E16A01EB8101114A02EBBC
:1054E0008100211D01F0D0F801F01EF90A48006882
:1054F00068B108480068C06AE16A884207D24FF084
:10550000805009490860BFF34F8FBFF36F8F10BD04
:10551000A412002094120020B0120020C01200201B
:10552000AC120020C016002004ED00E010B501F020
:10553000B7F810480068D0B90F4801F07BF80F4861
:1055400001F078F80C480E4908600C480D490860D5
:1055500000221021052001F015FD064908600846CB
:10556000006820B108A10348006801F0D1F901F0FA
:10557000DBF810BDD8120020A4190020B8190020B3
:10558000D0120020D4120020546D7251000000008F
:1055900070B523E001F0D2FB1348006808B9012080
:1055A00000E00020054602F057FABDB901F078F896
:1055B0000D48C068C468201D01F028F80B48006839
:1055C000401E0A4908600A480068401E08490860F1
:1055D00001F0AAF8204600F060F800BF0448006817
:1055E0000028D7D170BD00007C190020A412002033
:1055F000A012002070B504460D46206C70B1216CDD
:10560000E0680844E0606168E068884201D320688F
:10561000E0602846226CE168FAF76EFF70BD2DE964
:10562000F04104460F4615464FF00008A66B206C6B
:1056300040B9206860BB606802F048F980460020ED
:10564000606025E07DB93946226CA068FAF754FF06
:10565000216CA0680844A060D4E90110884217D3E7
:105660002068A06014E03946226CE068FAF744FF35
:10567000216CE068401AE0602168E068884203D24B
:10568000216C6068401AE060022D01D106B1761EDF
:10569000701CA0634046BDE8F08110B50446206B45
:1056A00001F07AF8204601F077F810BD0146084A6B
:1056B000126812680AB9012200E000220A600A6832
:1056C00022B9034A1268D268106800E000207047CF
:1056D000D012002030B54FF4A043174800F0070463
:1056E0002CB1C01D20F00700134C041B1B1B0246ED
:1056F000124C22600024114D6C60D018083820F044
:1057000007000F4C206000240D4D2D686C600C4D7F
:105710002D682C601146441A4C60094C24680C60BA
:10572000084D4C682C60084D4C682C604FF00044CC
:10573000064D2C6030BD0000CC190020F012002076
:10574000F812002000130020FC1200200413002097
:1057500000BFFFF71DFF064800680128F9D94FF088
:10576000805004490860BFF34F8FBFF36F8FF0E79D
:10577000C016002004ED00E02DE9F04106460D467C
:1057800017469846069C0DB9246000E02760E66342
:1057900025640121204601F013FD84F8508000208B
:1057A000A064BDE8F08100002DE9F05F82460F465D
:1057B00090469B460A9E0C9C4FEA8801A522206BCE
:1057C000FAF7DFFEA8F10100216B01EB800929F057
:1057D000070909F0070008B9012000E0002028B9F6
:1057E00040F22B321BA120A0FAF7E0FD002507E0D4
:1057F000795D04F134004155785D00B902E06D1C1B
:10580000102DF5D300BF002143200155202E00D3D9
:105810001F26E662E66400202065201D00F017FFC9
:1058200004F1180000F013FF2461C6F12000A0610C
:1058300064620020606584F858005A465146484624
:1058400000F002FC20600B9808B10B980460BDE8E2
:10585000F09F00002E2E5C4672656552544F535CDB
:105860007461736B732E63004572726F723A2573A5
:105870002C25640D0A00000010B5002407E004EB9D
:1058800084010F4A02EB810000F0D4FE641C202C3E
:10589000F5D30C4800F0CEFE0B4800F0CBFE0B48D1
:1058A00000F0C8FE0A4800F0C5FE0A4800F0C2FE3B
:1058B00004480949086004480849086010BD000010
:1058C000C01600204019002054190020681900203B
:1058D0007C19002090190020981200209C120020B2
:1058E00010B50146164800E0006803688B42FBD300
:1058F0000246436813448B4204D143684C682344F6
:10590000436001460A464B6813440468A34211D120
:105910000C4C03682468A34208D04B680468646890
:1059200023444B6003681B680B6005E0054B1B6854
:105930000B6001E003680B60884200D0016010BD7D
:10594000F0120020F81200202DE9F04104460D4627
:1059500016461F464FF0000865602461B5420CD81A
:10596000F01BA169884202D34FF0010811E0211D0C
:105970000948006800F06EFE0BE0BE4204D2BD4252
:1059800002D34FF0010804E0211D0448006800F034
:1059900061FE4046BDE8F081D4120020D012002004
:1059A00070B5054600F07CFEA86B08B9012400E044
:1059B000002400F0B9FE204670BD70B5054600F029
:1059C0006FFEA86BE96B884201D1012400E000243E
:1059D00000F0AAFE204670BD2DE9F3410D46009867
:1059E000846C00272CB940F6CE121AA11EA0FAF73B
:1059F000DDFCA06BE16B884201D2012000E00020B9
:105A000028B940F6CF1213A117A0FAF7CFFCA06B6C
:105A1000E16B88421BD294F945602A4669462046CC
:105A2000FFF7FDFD0746701C60B9606A08B90120E8
:105A300000E0002050B904F1240001F0B3FF28B1C8
:105A4000012703E0701C40B284F8450000BF3846CF
:105A5000BDE8FC812E2E5C4672656552544F535C46
:105A600071756575652E63004572726F723A2573A4
:105A70002C25640D0A000000F8B505460F461348B2
:105A80000068C068C468201D00F0C0FDE0690128FE
:105A900018D1A06941192B463A462046FFF754FF1A
:105AA00080B1002003462A4601460090204602F0BD
:105AB0009DF806462EB94FF4027205A10AA0FAF726
:105AC00075FC00BF2046616A8847F8BDD0120020EF
:105AD0002E2E5C4672656552544F535C74696D6539
